{
  "_format": "hh-sol-artifact-1",
  "contractName": "Factory",
  "sourceName": "contracts/ERC20.sol",
  "abi": [
    {
      "anonymous": false,
      "inputs": [
        {
          "indexed": false,
          "internalType": "address",
          "name": "tokenAddress",
          "type": "address"
        }
      ],
      "name": "TokenDeployed",
      "type": "event"
    },
    {
      "inputs": [
        {
          "internalType": "string",
          "name": "_name",
          "type": "string"
        },
        {
          "internalType": "string",
          "name": "_ticker",
          "type": "string"
        },
        {
          "internalType": "uint256",
          "name": "_supply",
          "type": "uint256"
        }
      ],
      "name": "deployToken",
      "outputs": [],
      "stateMutability": "nonpayable",
      "type": "function"
    },
    {
      "inputs": [],
      "name": "tokenCount",
      "outputs": [
        {
          "internalType": "uint256",
          "name": "",
          "type": "uint256"
        }
      ],
      "stateMutability": "view",
      "type": "function"
    },
    {
      "inputs": [
        {
          "internalType": "uint256",
          "name": "",
          "type": "uint256"
        }
      ],
      "name": "tokens",
      "outputs": [
        {
          "internalType": "address",
          "name": "",
          "type": "address"
        }
      ],
      "stateMutability": "view",
      "type": "function"
    },
    {
      "inputs": [
        {
          "internalType": "address",
          "name": "user",
          "type": "address"
        }
      ],
      "name": "userData",
      "outputs": [
        {
          "internalType": "address[]",
          "name": "",
          "type": "address[]"
        }
      ],
      "stateMutability": "view",
      "type": "function"
    },
    {
      "inputs": [
        {
          "internalType": "address",
          "name": "",
          "type": "address"
        },
        {
          "internalType": "uint256",
          "name": "",
          "type": "uint256"
        }
      ],
      "name": "userTokens",
      "outputs": [
        {
          "internalType": "address",
          "name": "",
          "type": "address"
        }
      ],
      "stateMutability": "view",
      "type": "function"
    }
  ],
  "bytecode": "0x6080604052600060015534801561001557600080fd5b506114fa806100256000396000f3fe60806040523480156200001157600080fd5b50600436106200005e5760003560e01c80633a93babb14620000635780634f64b2be146200007c5780639f181b5e14620000b0578063c891091314620000c9578063f9f411d814620000ef575b600080fd5b6200007a62000074366004620003c5565b62000106565b005b620000936200008d36600462000440565b6200028f565b6040516001600160a01b0390911681526020015b60405180910390f35b620000ba60015481565b604051908152602001620000a7565b620000e0620000da36600462000477565b620002ba565b604051620000a791906200049c565b6200009362000100366004620004eb565b62000332565b600085858585856040516200011b906200036b565b6200012b95949392919062000541565b604051809103906000f08015801562000148573d6000803e3d6000fd5b5060405163a9059cbb60e01b8152336004820152602481018490529091506001600160a01b0382169063a9059cbb906044016020604051808303816000875af11580156200019a573d6000803e3d6000fd5b505050506040513d601f19601f82011682018060405250810190620001c091906200057f565b5060008054600181810183557f290decd9548b62a8d60345a988386fc84ba6bc95484008f6362f93160ef3e56390910180546001600160a01b0385166001600160a01b03199182168117909255338452600260209081526040852080548086018255908652908520018054909116909117905580549091829162000246908390620005a3565b90915550506040516001600160a01b03821681527f91d24864a084ab70b268a1f865e757ca12006cf298d763b6be697302ef86498c9060200160405180910390a1505050505050565b60008181548110620002a057600080fd5b6000918252602090912001546001600160a01b0316905081565b6001600160a01b0381166000908152600260209081526040918290208054835181840281018401909452808452606093928301828280156200032657602002820191906000526020600020905b81546001600160a01b0316815260019091019060200180831162000307575b50505050509050919050565b600260205281600052604060002081815481106200034f57600080fd5b6000918252602090912001546001600160a01b03169150829050565b610ef980620005cc83390190565b60008083601f8401126200038c57600080fd5b50813567ffffffffffffffff811115620003a557600080fd5b602083019150836020828501011115620003be57600080fd5b9250929050565b600080600080600060608688031215620003de57600080fd5b853567ffffffffffffffff80821115620003f757600080fd5b6200040589838a0162000379565b909750955060208801359150808211156200041f57600080fd5b506200042e8882890162000379565b96999598509660400135949350505050565b6000602082840312156200045357600080fd5b5035919050565b80356001600160a01b03811681146200047257600080fd5b919050565b6000602082840312156200048a57600080fd5b62000495826200045a565b9392505050565b6020808252825182820181905260009190848201906040850190845b81811015620004df5783516001600160a01b031683529284019291840191600101620004b8565b50909695505050505050565b60008060408385031215620004ff57600080fd5b6200050a836200045a565b946020939093013593505050565b81835281816020850137506000828201602090810191909152601f909101601f19169091010190565b6060815260006200055760608301878962000518565b82810360208401526200056c81868862000518565b9150508260408301529695505050505050565b6000602082840312156200059257600080fd5b815180151581146200049557600080fd5b80820180821115620005c557634e487b7160e01b600052601160045260246000fd5b9291505056fe608060405260405162000ef938038062000ef9833981016040819052620000269162000330565b8282600362000036838262000432565b50600462000045828262000432565b5050506200005a3382620000f660201b60201c565b600580546001600160a01b03191633908117909155604051632210724360e11b8152600481019190915273bbd707815a7f7eb6897c7686274afabd7b579ff6908190634420e486906024016020604051808303816000875af1158015620000c5573d6000803e3d6000fd5b505050506040513d601f19601f82011682018060405250810190620000eb9190620004fe565b505050505062000540565b6001600160a01b038216620001265760405163ec442f0560e01b8152600060048201526024015b60405180910390fd5b620001346000838362000138565b5050565b6001600160a01b038316620001675780600260008282546200015b919062000518565b90915550620001db9050565b6001600160a01b03831660009081526020819052604090205481811015620001bc5760405163391434e360e21b81526001600160a01b038516600482015260248101829052604481018390526064016200011d565b6001600160a01b03841660009081526020819052604090209082900390555b6001600160a01b038216620001f95760028054829003905562000218565b6001600160a01b03821660009081526020819052604090208054820190555b816001600160a01b0316836001600160a01b03167fddf252ad1be2c89b69c2b068fc378daa952ba7f163c4a11628f55a4df523b3ef836040516200025e91815260200190565b60405180910390a3505050565b634e487b7160e01b600052604160045260246000fd5b600082601f8301126200029357600080fd5b81516001600160401b0380821115620002b057620002b06200026b565b604051601f8301601f19908116603f01168101908282118183101715620002db57620002db6200026b565b81604052838152602092508683858801011115620002f857600080fd5b600091505b838210156200031c5785820183015181830184015290820190620002fd565b600093810190920192909252949350505050565b6000806000606084860312156200034657600080fd5b83516001600160401b03808211156200035e57600080fd5b6200036c8783880162000281565b945060208601519150808211156200038357600080fd5b50620003928682870162000281565b925050604084015190509250925092565b600181811c90821680620003b857607f821691505b602082108103620003d957634e487b7160e01b600052602260045260246000fd5b50919050565b601f8211156200042d57600081815260208120601f850160051c81016020861015620004085750805b601f850160051c820191505b81811015620004295782815560010162000414565b5050505b505050565b81516001600160401b038111156200044e576200044e6200026b565b62000466816200045f8454620003a3565b84620003df565b602080601f8311600181146200049e5760008415620004855750858301515b600019600386901b1c1916600185901b17855562000429565b600085815260208120601f198616915b82811015620004cf57888601518255948401946001909101908401620004ae565b5085821015620004ee5787850151600019600388901b60f8161c191681555b5050505050600190811b01905550565b6000602082840312156200051157600080fd5b5051919050565b808201808211156200053a57634e487b7160e01b600052601160045260246000fd5b92915050565b6109a980620005506000396000f3fe608060405234801561001057600080fd5b50600436106100b45760003560e01c806370a082311161007157806370a082311461014357806395d89b411461016c578063a9059cbb14610174578063c204642c14610187578063dd62ed3e1461019a578063ec66090f146101d357600080fd5b806306fdde03146100b9578063095ea7b3146100d757806318160ddd146100fa57806323b872dd1461010c578063313ce5671461011f57806342966c681461012e575b600080fd5b6100c16101e6565b6040516100ce91906106c2565b60405180910390f35b6100ea6100e536600461072c565b610278565b60405190151581526020016100ce565b6002545b6040519081526020016100ce565b6100ea61011a366004610756565b610292565b604051601281526020016100ce565b61014161013c366004610792565b6102b6565b005b6100fe6101513660046107ab565b6001600160a01b031660009081526020819052604090205490565b6100c16102d5565b6100ea61018236600461072c565b6102e4565b6101416101953660046107e3565b6102f2565b6100fe6101a83660046108ae565b6001600160a01b03918216600090815260016020908152604080832093909416825291909152205490565b6101416101e1366004610792565b61034c565b6060600380546101f5906108e1565b80601f0160208091040260200160405190810160405280929190818152602001828054610221906108e1565b801561026e5780601f106102435761010080835404028352916020019161026e565b820191906000526020600020905b81548152906001019060200180831161025157829003601f168201915b5050505050905090565b600033610286818585610368565b60019150505b92915050565b6000336102a0858285610375565b6102ab8585856103f8565b506001949350505050565b6005546001600160a01b031633036102d2576102d23382610457565b50565b6060600480546101f5906108e1565b6000336102868185856103f8565b6005546001600160a01b031633036103485760005b825181101561034657610334338483815181106103265761032661091b565b6020026020010151846103f8565b8061033e81610947565b915050610307565b505b5050565b6005546001600160a01b031633036102d2576102d2338261048d565b61034683838360016104c3565b6001600160a01b0383811660009081526001602090815260408083209386168352929052205460001981146103f257818110156103e357604051637dc7a0d960e11b81526001600160a01b038416600482015260248101829052604481018390526064015b60405180910390fd5b6103f2848484840360006104c3565b50505050565b6001600160a01b03831661042257604051634b637e8f60e11b8152600060048201526024016103da565b6001600160a01b03821661044c5760405163ec442f0560e01b8152600060048201526024016103da565b610346838383610598565b6001600160a01b03821661048157604051634b637e8f60e11b8152600060048201526024016103da565b61034882600083610598565b6001600160a01b0382166104b75760405163ec442f0560e01b8152600060048201526024016103da565b61034860008383610598565b6001600160a01b0384166104ed5760405163e602df0560e01b8152600060048201526024016103da565b6001600160a01b03831661051757604051634a1406b160e11b8152600060048201526024016103da565b6001600160a01b03808516600090815260016020908152604080832093871683529290522082905580156103f257826001600160a01b0316846001600160a01b03167f8c5be1e5ebec7d5bd14f71427d1e84f3dd0314c0f7b2291e5b200ac8c7c3b9258460405161058a91815260200190565b60405180910390a350505050565b6001600160a01b0383166105c35780600260008282546105b89190610960565b909155506106359050565b6001600160a01b038316600090815260208190526040902054818110156106165760405163391434e360e21b81526001600160a01b038516600482015260248101829052604481018390526064016103da565b6001600160a01b03841660009081526020819052604090209082900390555b6001600160a01b03821661065157600280548290039055610670565b6001600160a01b03821660009081526020819052604090208054820190555b816001600160a01b0316836001600160a01b03167fddf252ad1be2c89b69c2b068fc378daa952ba7f163c4a11628f55a4df523b3ef836040516106b591815260200190565b60405180910390a3505050565b600060208083528351808285015260005b818110156106ef578581018301518582016040015282016106d3565b506000604082860101526040601f19601f8301168501019250505092915050565b80356001600160a01b038116811461072757600080fd5b919050565b6000806040838503121561073f57600080fd5b61074883610710565b946020939093013593505050565b60008060006060848603121561076b57600080fd5b61077484610710565b925061078260208501610710565b9150604084013590509250925092565b6000602082840312156107a457600080fd5b5035919050565b6000602082840312156107bd57600080fd5b6107c682610710565b9392505050565b634e487b7160e01b600052604160045260246000fd5b600080604083850312156107f657600080fd5b823567ffffffffffffffff8082111561080e57600080fd5b818501915085601f83011261082257600080fd5b8135602082821115610836576108366107cd565b8160051b604051601f19603f8301168101818110868211171561085b5761085b6107cd565b60405292835281830193508481018201928984111561087957600080fd5b948201945b8386101561089e5761088f86610710565b8552948201949382019361087e565b9997909101359750505050505050565b600080604083850312156108c157600080fd5b6108ca83610710565b91506108d860208401610710565b90509250929050565b600181811c908216806108f557607f821691505b60208210810361091557634e487b7160e01b600052602260045260246000fd5b50919050565b634e487b7160e01b600052603260045260246000fd5b634e487b7160e01b600052601160045260246000fd5b60006001820161095957610959610931565b5060010190565b8082018082111561028c5761028c61093156fea26469706673582212204f843185c6e06314d59a3fe4fd0cd04ab0dc05cea91acdfd011f45aecc35461e64736f6c63430008140033a264697066735822122032e988b5e371edd7d9b9c1724cd887e4027cfd7a6072ada17d2ae902d55bf81964736f6c63430008140033",
  "linkReferences": {},
  "deployedLinkReferences": {}
}