{
    "_format": "hh-sol-artifact-1",
    "contractName": "MarketPlace",
    "sourceName": "contracts/MarketPlace.sol",
    "abi": [
        {
            "inputs": [
                {
                    "internalType": "string",
                    "name": "_name",
                    "type": "string"
                },
                {
                    "internalType": "string",
                    "name": "_description",
                    "type": "string"
                }
            ],
            "stateMutability": "nonpayable",
            "type": "constructor"
        },
        {
            "inputs": [
                {
                    "internalType": "address",
                    "name": "owner",
                    "type": "address"
                }
            ],
            "name": "OwnableInvalidOwner",
            "type": "error"
        },
        {
            "inputs": [
                {
                    "internalType": "address",
                    "name": "account",
                    "type": "address"
                }
            ],
            "name": "OwnableUnauthorizedAccount",
            "type": "error"
        },
        {
            "anonymous": false,
            "inputs": [
                {
                    "indexed": true,
                    "internalType": "address",
                    "name": "previousOwner",
                    "type": "address"
                },
                {
                    "indexed": true,
                    "internalType": "address",
                    "name": "newOwner",
                    "type": "address"
                }
            ],
            "name": "OwnershipTransferred",
            "type": "event"
        },
        {
            "anonymous": false,
            "inputs": [
                {
                    "indexed": false,
                    "internalType": "string",
                    "name": "name",
                    "type": "string"
                },
                {
                    "indexed": false,
                    "internalType": "uint256",
                    "name": "price",
                    "type": "uint256"
                },
                {
                    "indexed": false,
                    "internalType": "uint256",
                    "name": "quantity",
                    "type": "uint256"
                },
                {
                    "indexed": false,
                    "internalType": "string",
                    "name": "ipfsLink",
                    "type": "string"
                }
            ],
            "name": "ProductAdded",
            "type": "event"
        },
        {
            "inputs": [
                {
                    "internalType": "string",
                    "name": "_name",
                    "type": "string"
                },
                {
                    "internalType": "uint256",
                    "name": "_price",
                    "type": "uint256"
                },
                {
                    "internalType": "uint256",
                    "name": "_quantity",
                    "type": "uint256"
                },
                {
                    "internalType": "string",
                    "name": "_ipfsLink",
                    "type": "string"
                }
            ],
            "name": "addProduct",
            "outputs": [],
            "stateMutability": "nonpayable",
            "type": "function"
        },
        {
            "inputs": [
                {
                    "internalType": "uint256",
                    "name": "_id",
                    "type": "uint256"
                }
            ],
            "name": "deleteProduct",
            "outputs": [],
            "stateMutability": "nonpayable",
            "type": "function"
        },
        {
            "inputs": [
                {
                    "internalType": "uint256",
                    "name": "_id",
                    "type": "uint256"
                },
                {
                    "internalType": "string",
                    "name": "_name",
                    "type": "string"
                },
                {
                    "internalType": "uint256",
                    "name": "_price",
                    "type": "uint256"
                },
                {
                    "internalType": "uint256",
                    "name": "_quantity",
                    "type": "uint256"
                },
                {
                    "internalType": "string",
                    "name": "_ipfsLink",
                    "type": "string"
                }
            ],
            "name": "editProduct",
            "outputs": [],
            "stateMutability": "nonpayable",
            "type": "function"
        },
        {
            "inputs": [],
            "name": "getProducts",
            "outputs": [
                {
                    "components": [
                        {
                            "internalType": "string",
                            "name": "name",
                            "type": "string"
                        },
                        {
                            "internalType": "uint256",
                            "name": "price",
                            "type": "uint256"
                        },
                        {
                            "internalType": "uint256",
                            "name": "quantity",
                            "type": "uint256"
                        },
                        {
                            "internalType": "string",
                            "name": "ipfsLink",
                            "type": "string"
                        },
                        {
                            "internalType": "uint256",
                            "name": "sold",
                            "type": "uint256"
                        }
                    ],
                    "internalType": "struct MarketPlace.Product[]",
                    "name": "",
                    "type": "tuple[]"
                }
            ],
            "stateMutability": "view",
            "type": "function"
        },
        {
            "inputs": [],
            "name": "marketPlaceDescription",
            "outputs": [
                {
                    "internalType": "string",
                    "name": "",
                    "type": "string"
                }
            ],
            "stateMutability": "view",
            "type": "function"
        },
        {
            "inputs": [],
            "name": "marketPlaceName",
            "outputs": [
                {
                    "internalType": "string",
                    "name": "",
                    "type": "string"
                }
            ],
            "stateMutability": "view",
            "type": "function"
        },
        {
            "inputs": [],
            "name": "owner",
            "outputs": [
                {
                    "internalType": "address",
                    "name": "",
                    "type": "address"
                }
            ],
            "stateMutability": "view",
            "type": "function"
        },
        {
            "inputs": [
                {
                    "internalType": "uint256",
                    "name": "",
                    "type": "uint256"
                }
            ],
            "name": "products",
            "outputs": [
                {
                    "internalType": "string",
                    "name": "name",
                    "type": "string"
                },
                {
                    "internalType": "uint256",
                    "name": "price",
                    "type": "uint256"
                },
                {
                    "internalType": "uint256",
                    "name": "quantity",
                    "type": "uint256"
                },
                {
                    "internalType": "string",
                    "name": "ipfsLink",
                    "type": "string"
                },
                {
                    "internalType": "uint256",
                    "name": "sold",
                    "type": "uint256"
                }
            ],
            "stateMutability": "view",
            "type": "function"
        },
        {
            "inputs": [],
            "name": "renounceOwnership",
            "outputs": [],
            "stateMutability": "nonpayable",
            "type": "function"
        },
        {
            "inputs": [
                {
                    "internalType": "address",
                    "name": "newOwner",
                    "type": "address"
                }
            ],
            "name": "transferOwnership",
            "outputs": [],
            "stateMutability": "nonpayable",
            "type": "function"
        }
    ],
    "bytecode": "0x60806040523480156200001157600080fd5b50604051620022f6380380620022f6833981810160405281019062000037919062000342565b33600073ffffffffffffffffffffffffffffffffffffffff168173ffffffffffffffffffffffffffffffffffffffff1603620000ad5760006040517f1e4fbdf7000000000000000000000000000000000000000000000000000000008152600401620000a491906200040c565b60405180910390fd5b620000be81620000eb60201b60201c565b508160029081620000d0919062000674565b508060039081620000e2919062000674565b5050506200075b565b60008060009054906101000a900473ffffffffffffffffffffffffffffffffffffffff169050816000806101000a81548173ffffffffffffffffffffffffffffffffffffffff021916908373ffffffffffffffffffffffffffffffffffffffff1602179055508173ffffffffffffffffffffffffffffffffffffffff168173ffffffffffffffffffffffffffffffffffffffff167f8be0079c531659141344cd1fd0a4f28419497f9722a3daafe3b4186f6b6457e060405160405180910390a35050565b6000604051905090565b600080fd5b600080fd5b600080fd5b600080fd5b6000601f19601f8301169050919050565b7f4e487b7100000000000000000000000000000000000000000000000000000000600052604160045260246000fd5b6200021882620001cd565b810181811067ffffffffffffffff821117156200023a5762000239620001de565b5b80604052505050565b60006200024f620001af565b90506200025d82826200020d565b919050565b600067ffffffffffffffff82111562000280576200027f620001de565b5b6200028b82620001cd565b9050602081019050919050565b60005b83811015620002b85780820151818401526020810190506200029b565b60008484015250505050565b6000620002db620002d58462000262565b62000243565b905082815260208101848484011115620002fa57620002f9620001c8565b5b6200030784828562000298565b509392505050565b600082601f830112620003275762000326620001c3565b5b815162000339848260208601620002c4565b91505092915050565b600080604083850312156200035c576200035b620001b9565b5b600083015167ffffffffffffffff8111156200037d576200037c620001be565b5b6200038b858286016200030f565b925050602083015167ffffffffffffffff811115620003af57620003ae620001be565b5b620003bd858286016200030f565b9150509250929050565b600073ffffffffffffffffffffffffffffffffffffffff82169050919050565b6000620003f482620003c7565b9050919050565b6200040681620003e7565b82525050565b6000602082019050620004236000830184620003fb565b92915050565b600081519050919050565b7f4e487b7100000000000000000000000000000000000000000000000000000000600052602260045260246000fd5b600060028204905060018216806200047c57607f821691505b60208210810362000492576200049162000434565b5b50919050565b60008190508160005260206000209050919050565b60006020601f8301049050919050565b600082821b905092915050565b600060088302620004fc7fffffffffffffffffffffffffffffffffffffffffffffffffffffffffffffffff82620004bd565b620005088683620004bd565b95508019841693508086168417925050509392505050565b6000819050919050565b6000819050919050565b6000620005556200054f620005498462000520565b6200052a565b62000520565b9050919050565b6000819050919050565b620005718362000534565b6200058962000580826200055c565b848454620004ca565b825550505050565b600090565b620005a062000591565b620005ad81848462000566565b505050565b5b81811015620005d557620005c960008262000596565b600181019050620005b3565b5050565b601f8211156200062457620005ee8162000498565b620005f984620004ad565b8101602085101562000609578190505b620006216200061885620004ad565b830182620005b2565b50505b505050565b600082821c905092915050565b6000620006496000198460080262000629565b1980831691505092915050565b600062000664838362000636565b9150826002028217905092915050565b6200067f8262000429565b67ffffffffffffffff8111156200069b576200069a620001de565b5b620006a7825462000463565b620006b4828285620005d9565b600060209050601f831160018114620006ec5760008415620006d7578287015190505b620006e3858262000656565b86555062000753565b601f198416620006fc8662000498565b60005b828110156200072657848901518255600182019150602085019450602081019050620006ff565b8683101562000746578489015162000742601f89168262000636565b8355505b6001600288020188555050505b505050505050565b611b8b806200076b6000396000f3fe608060405234801561001057600080fd5b506004361061009e5760003560e01c80638ef291e9116100665780638ef291e914610137578063c29b2f2014610155578063dbae7ba314610173578063ed90c7b714610191578063f2fde38b146101ad5761009e565b806338789d3a146100a3578063715018a6146100bf5780637acc0b20146100c95780638c8df853146100fd5780638da5cb5b14610119575b600080fd5b6100bd60048036038101906100b89190610f4a565b6101c9565b005b6100c76103b9565b005b6100e360048036038101906100de9190610fe9565b6103cd565b6040516100f49594939291906110a4565b60405180910390f35b61011760048036038101906101129190611105565b610523565b005b610121610746565b60405161012e91906111f9565b60405180910390f35b61013f61076f565b60405161014c9190611214565b60405180910390f35b61015d6107fd565b60405161016a91906113ce565b60405180910390f35b61017b61099e565b6040516101889190611214565b60405180910390f35b6101ab60048036038101906101a69190610fe9565b610a2c565b005b6101c760048036038101906101c2919061141c565b610b84565b005b600084511161020d576040517f08c379a000000000000000000000000000000000000000000000000000000000815260040161020490611495565b60405180910390fd5b60008311610250576040517f08c379a000000000000000000000000000000000000000000000000000000000815260040161024790611501565b60405180910390fd5b60008211610293576040517f08c379a000000000000000000000000000000000000000000000000000000000815260040161028a9061156d565b60405180910390fd5b60008151116102d7576040517f08c379a00000000000000000000000000000000000000000000000000000000081526004016102ce906115d9565b60405180910390fd5b60016040518060a0016040528086815260200185815260200184815260200183815260200160008152509080600181540180825580915050600190039060005260206000209060050201600090919091909150600082015181600001908161033f9190611805565b50602082015181600101556040820151816002015560608201518160030190816103699190611805565b506080820151816004015550507fb15f1a0c5e066bde8b65355e8ff33b3e6ff200229ec7b92aacb6bc2dc0f7ff9b848484846040516103ab94939291906118d7565b60405180910390a150505050565b6103c1610c0a565b6103cb6000610c91565b565b600181815481106103dd57600080fd5b906000526020600020906005020160009150905080600001805461040090611628565b80601f016020809104026020016040519081016040528092919081815260200182805461042c90611628565b80156104795780601f1061044e57610100808354040283529160200191610479565b820191906000526020600020905b81548152906001019060200180831161045c57829003601f168201915b50505050509080600101549080600201549080600301805461049a90611628565b80601f01602080910402602001604051908101604052809291908181526020018280546104c690611628565b80156105135780601f106104e857610100808354040283529160200191610513565b820191906000526020600020905b8154815290600101906020018083116104f657829003601f168201915b5050505050908060040154905085565b60008511801561053857506001805490508511155b610577576040517f08c379a000000000000000000000000000000000000000000000000000000000815260040161056e90611976565b60405180910390fd5b60008451116105bb576040517f08c379a00000000000000000000000000000000000000000000000000000000081526004016105b290611495565b60405180910390fd5b600083116105fe576040517f08c379a00000000000000000000000000000000000000000000000000000000081526004016105f590611501565b60405180910390fd5b60008211610641576040517f08c379a00000000000000000000000000000000000000000000000000000000081526004016106389061156d565b60405180910390fd5b6000815111610685576040517f08c379a000000000000000000000000000000000000000000000000000000000815260040161067c906115d9565b60405180910390fd5b836001868154811061069a57610699611996565b5b906000526020600020906005020160000190816106b79190611805565b5082600186815481106106cd576106cc611996565b5b90600052602060002090600502016001018190555081600186815481106106f7576106f6611996565b5b906000526020600020906005020160020181905550806001868154811061072157610720611996565b5b9060005260206000209060050201600301908161073e9190611805565b505050505050565b60008060009054906101000a900473ffffffffffffffffffffffffffffffffffffffff16905090565b6002805461077c90611628565b80601f01602080910402602001604051908101604052809291908181526020018280546107a890611628565b80156107f55780601f106107ca576101008083540402835291602001916107f5565b820191906000526020600020905b8154815290600101906020018083116107d857829003601f168201915b505050505081565b60606001805480602002602001604051908101604052809291908181526020016000905b8282101561099557838290600052602060002090600502016040518060a001604052908160008201805461085490611628565b80601f016020809104026020016040519081016040528092919081815260200182805461088090611628565b80156108cd5780601f106108a2576101008083540402835291602001916108cd565b820191906000526020600020905b8154815290600101906020018083116108b057829003601f168201915b5050505050815260200160018201548152602001600282015481526020016003820180546108fa90611628565b80601f016020809104026020016040519081016040528092919081815260200182805461092690611628565b80156109735780601f1061094857610100808354040283529160200191610973565b820191906000526020600020905b81548152906001019060200180831161095657829003601f168201915b5050505050815260200160048201548152505081526020019060010190610821565b50505050905090565b600380546109ab90611628565b80601f01602080910402602001604051908101604052809291908181526020018280546109d790611628565b8015610a245780601f106109f957610100808354040283529160200191610a24565b820191906000526020600020905b815481529060010190602001808311610a0757829003601f168201915b505050505081565b600081118015610a4157506001805490508111155b610a80576040517f08c379a0000000000000000000000000000000000000000000000000000000008152600401610a7790611976565b60405180910390fd5b6001808080549050610a9291906119f4565b81548110610aa357610aa2611996565b5b906000526020600020906005020160018281548110610ac557610ac4611996565b5b906000526020600020906005020160008201816000019081610ae79190611a3e565b50600182015481600101556002820154816002015560038201816003019081610b109190611a3e565b50600482015481600401559050506001805480610b3057610b2f611b26565b5b600190038181906000526020600020906005020160008082016000610b559190610d5d565b60018201600090556002820160009055600382016000610b759190610d5d565b60048201600090555050905550565b610b8c610c0a565b600073ffffffffffffffffffffffffffffffffffffffff168173ffffffffffffffffffffffffffffffffffffffff1603610bfe5760006040517f1e4fbdf7000000000000000000000000000000000000000000000000000000008152600401610bf591906111f9565b60405180910390fd5b610c0781610c91565b50565b610c12610d55565b73ffffffffffffffffffffffffffffffffffffffff16610c30610746565b73ffffffffffffffffffffffffffffffffffffffff1614610c8f57610c53610d55565b6040517f118cdaa7000000000000000000000000000000000000000000000000000000008152600401610c8691906111f9565b60405180910390fd5b565b60008060009054906101000a900473ffffffffffffffffffffffffffffffffffffffff169050816000806101000a81548173ffffffffffffffffffffffffffffffffffffffff021916908373ffffffffffffffffffffffffffffffffffffffff1602179055508173ffffffffffffffffffffffffffffffffffffffff168173ffffffffffffffffffffffffffffffffffffffff167f8be0079c531659141344cd1fd0a4f28419497f9722a3daafe3b4186f6b6457e060405160405180910390a35050565b600033905090565b508054610d6990611628565b6000825580601f10610d7b5750610d9a565b601f016020900490600052602060002090810190610d999190610d9d565b5b50565b5b80821115610db6576000816000905550600101610d9e565b5090565b6000604051905090565b600080fd5b600080fd5b600080fd5b600080fd5b6000601f19601f8301169050919050565b7f4e487b7100000000000000000000000000000000000000000000000000000000600052604160045260246000fd5b610e2182610dd8565b810181811067ffffffffffffffff82111715610e4057610e3f610de9565b5b80604052505050565b6000610e53610dba565b9050610e5f8282610e18565b919050565b600067ffffffffffffffff821115610e7f57610e7e610de9565b5b610e8882610dd8565b9050602081019050919050565b82818337600083830152505050565b6000610eb7610eb284610e64565b610e49565b905082815260208101848484011115610ed357610ed2610dd3565b5b610ede848285610e95565b509392505050565b600082601f830112610efb57610efa610dce565b5b8135610f0b848260208601610ea4565b91505092915050565b6000819050919050565b610f2781610f14565b8114610f3257600080fd5b50565b600081359050610f4481610f1e565b92915050565b60008060008060808587031215610f6457610f63610dc4565b5b600085013567ffffffffffffffff811115610f8257610f81610dc9565b5b610f8e87828801610ee6565b9450506020610f9f87828801610f35565b9350506040610fb087828801610f35565b925050606085013567ffffffffffffffff811115610fd157610fd0610dc9565b5b610fdd87828801610ee6565b91505092959194509250565b600060208284031215610fff57610ffe610dc4565b5b600061100d84828501610f35565b91505092915050565b600081519050919050565b600082825260208201905092915050565b60005b83811015611050578082015181840152602081019050611035565b60008484015250505050565b600061106782611016565b6110718185611021565b9350611081818560208601611032565b61108a81610dd8565b840191505092915050565b61109e81610f14565b82525050565b600060a08201905081810360008301526110be818861105c565b90506110cd6020830187611095565b6110da6040830186611095565b81810360608301526110ec818561105c565b90506110fb6080830184611095565b9695505050505050565b600080600080600060a0868803121561112157611120610dc4565b5b600061112f88828901610f35565b955050602086013567ffffffffffffffff8111156111505761114f610dc9565b5b61115c88828901610ee6565b945050604061116d88828901610f35565b935050606061117e88828901610f35565b925050608086013567ffffffffffffffff81111561119f5761119e610dc9565b5b6111ab88828901610ee6565b9150509295509295909350565b600073ffffffffffffffffffffffffffffffffffffffff82169050919050565b60006111e3826111b8565b9050919050565b6111f3816111d8565b82525050565b600060208201905061120e60008301846111ea565b92915050565b6000602082019050818103600083015261122e818461105c565b905092915050565b600081519050919050565b600082825260208201905092915050565b6000819050602082019050919050565b600082825260208201905092915050565b600061127e82611016565b6112888185611262565b9350611298818560208601611032565b6112a181610dd8565b840191505092915050565b6112b581610f14565b82525050565b600060a08301600083015184820360008601526112d88282611273565b91505060208301516112ed60208601826112ac565b50604083015161130060408601826112ac565b50606083015184820360608601526113188282611273565b915050608083015161132d60808601826112ac565b508091505092915050565b600061134483836112bb565b905092915050565b6000602082019050919050565b600061136482611236565b61136e8185611241565b93508360208202850161138085611252565b8060005b858110156113bc578484038952815161139d8582611338565b94506113a88361134c565b925060208a01995050600181019050611384565b50829750879550505050505092915050565b600060208201905081810360008301526113e88184611359565b905092915050565b6113f9816111d8565b811461140457600080fd5b50565b600081359050611416816113f0565b92915050565b60006020828403121561143257611431610dc4565b5b600061144084828501611407565b91505092915050565b7f4e616d6520726571756972656400000000000000000000000000000000000000600082015250565b600061147f600d83611021565b915061148a82611449565b602082019050919050565b600060208201905081810360008301526114ae81611472565b9050919050565b7f5072696365207265717569726564000000000000000000000000000000000000600082015250565b60006114eb600e83611021565b91506114f6826114b5565b602082019050919050565b6000602082019050818103600083015261151a816114de565b9050919050565b7f5175616e74697479207265717569726564000000000000000000000000000000600082015250565b6000611557601183611021565b915061156282611521565b602082019050919050565b600060208201905081810360008301526115868161154a565b9050919050565b7f49504653204c696e6b2072657175697265640000000000000000000000000000600082015250565b60006115c3601283611021565b91506115ce8261158d565b602082019050919050565b600060208201905081810360008301526115f2816115b6565b9050919050565b7f4e487b7100000000000000000000000000000000000000000000000000000000600052602260045260246000fd5b6000600282049050600182168061164057607f821691505b602082108103611653576116526115f9565b5b50919050565b60008190508160005260206000209050919050565b60006020601f8301049050919050565b600082821b905092915050565b6000600883026116bb7fffffffffffffffffffffffffffffffffffffffffffffffffffffffffffffffff8261167e565b6116c5868361167e565b95508019841693508086168417925050509392505050565b6000819050919050565b60006117026116fd6116f884610f14565b6116dd565b610f14565b9050919050565b6000819050919050565b61171c836116e7565b61173061172882611709565b84845461168b565b825550505050565b600090565b611745611738565b611750818484611713565b505050565b5b818110156117745761176960008261173d565b600181019050611756565b5050565b601f8211156117b95761178a81611659565b6117938461166e565b810160208510156117a2578190505b6117b66117ae8561166e565b830182611755565b50505b505050565b600082821c905092915050565b60006117dc600019846008026117be565b1980831691505092915050565b60006117f583836117cb565b9150826002028217905092915050565b61180e82611016565b67ffffffffffffffff81111561182757611826610de9565b5b6118318254611628565b61183c828285611778565b600060209050601f83116001811461186f576000841561185d578287015190505b61186785826117e9565b8655506118cf565b601f19841661187d86611659565b60005b828110156118a557848901518255600182019150602085019450602081019050611880565b868310156118c257848901516118be601f8916826117cb565b8355505b6001600288020188555050505b505050505050565b600060808201905081810360008301526118f1818761105c565b90506119006020830186611095565b61190d6040830185611095565b818103606083015261191f818461105c565b905095945050505050565b7f496e76616c69642070726f647563742069640000000000000000000000000000600082015250565b6000611960601283611021565b915061196b8261192a565b602082019050919050565b6000602082019050818103600083015261198f81611953565b9050919050565b7f4e487b7100000000000000000000000000000000000000000000000000000000600052603260045260246000fd5b7f4e487b7100000000000000000000000000000000000000000000000000000000600052601160045260246000fd5b60006119ff82610f14565b9150611a0a83610f14565b9250828203905081811115611a2257611a216119c5565b5b92915050565b600081549050611a3781611628565b9050919050565b818103611a4c575050611b24565b611a5582611a28565b67ffffffffffffffff811115611a6e57611a6d610de9565b5b611a788254611628565b611a83828285611778565b6000601f831160018114611ab25760008415611aa0578287015490505b611aaa85826117e9565b865550611b1d565b601f198416611ac087611659565b9650611acb86611659565b60005b82811015611af357848901548255600182019150600185019450602081019050611ace565b86831015611b105784890154611b0c601f8916826117cb565b8355505b6001600288020188555050505b5050505050505b565b7f4e487b7100000000000000000000000000000000000000000000000000000000600052603160045260246000fdfea264697066735822122052fd9abca933c8318df668072095d776e1395a650725d2ebc9ac9b7014ad16df64736f6c63430008140033",
    "linkReferences": {},
    "deployedLinkReferences": {}
}