{
  "_format": "hh-sol-artifact-1",
  "contractName": "Marketplace",
  "sourceName": "contracts/Marketplace.sol",
  "abi": [
    {
      "anonymous": false,
      "inputs": [
        {
          "indexed": true,
          "internalType": "address",
          "name": "seller",
          "type": "address"
        },
        {
          "indexed": true,
          "internalType": "address",
          "name": "token",
          "type": "address"
        },
        {
          "indexed": false,
          "internalType": "uint256",
          "name": "listingSupply",
          "type": "uint256"
        },
        {
          "indexed": false,
          "internalType": "uint256",
          "name": "tokenPrice",
          "type": "uint256"
        }
      ],
      "name": "TokenListed",
      "type": "event"
    },
    {
      "anonymous": false,
      "inputs": [
        {
          "indexed": true,
          "internalType": "address",
          "name": "buyer",
          "type": "address"
        },
        {
          "indexed": true,
          "internalType": "address",
          "name": "token",
          "type": "address"
        },
        {
          "indexed": false,
          "internalType": "uint256",
          "name": "amount",
          "type": "uint256"
        },
        {
          "indexed": false,
          "internalType": "uint256",
          "name": "totalPrice",
          "type": "uint256"
        }
      ],
      "name": "TokenSold",
      "type": "event"
    },
    {
      "inputs": [
        {
          "internalType": "uint256",
          "name": "_id",
          "type": "uint256"
        },
        {
          "internalType": "uint256",
          "name": "_amount",
          "type": "uint256"
        }
      ],
      "name": "buyToken",
      "outputs": [],
      "stateMutability": "nonpayable",
      "type": "function"
    },
    {
      "inputs": [],
      "name": "count",
      "outputs": [
        {
          "internalType": "uint256",
          "name": "",
          "type": "uint256"
        }
      ],
      "stateMutability": "view",
      "type": "function"
    },
    {
      "inputs": [
        {
          "internalType": "address",
          "name": "_address",
          "type": "address"
        }
      ],
      "name": "getUserTokens",
      "outputs": [
        {
          "internalType": "uint256[]",
          "name": "",
          "type": "uint256[]"
        }
      ],
      "stateMutability": "view",
      "type": "function"
    },
    {
      "inputs": [
        {
          "internalType": "contract IERC20",
          "name": "_token",
          "type": "address"
        },
        {
          "internalType": "uint256",
          "name": "_listingSupply",
          "type": "uint256"
        },
        {
          "internalType": "uint256",
          "name": "_tokenPrice",
          "type": "uint256"
        },
        {
          "internalType": "string",
          "name": "_tokenType",
          "type": "string"
        },
        {
          "internalType": "string",
          "name": "_tokenDesc",
          "type": "string"
        },
        {
          "internalType": "string",
          "name": "_tokenName",
          "type": "string"
        },
        {
          "internalType": "string",
          "name": "_tokenSymbol",
          "type": "string"
        }
      ],
      "name": "listToken",
      "outputs": [],
      "stateMutability": "nonpayable",
      "type": "function"
    },
    {
      "inputs": [
        {
          "internalType": "uint256",
          "name": "",
          "type": "uint256"
        }
      ],
      "name": "tokens",
      "outputs": [
        {
          "internalType": "address",
          "name": "seller",
          "type": "address"
        },
        {
          "internalType": "contract IERC20",
          "name": "token",
          "type": "address"
        },
        {
          "internalType": "uint256",
          "name": "listingSupply",
          "type": "uint256"
        },
        {
          "internalType": "uint256",
          "name": "tokenPrice",
          "type": "uint256"
        },
        {
          "internalType": "string",
          "name": "tokenType",
          "type": "string"
        },
        {
          "internalType": "string",
          "name": "tokenDesc",
          "type": "string"
        },
        {
          "internalType": "uint256",
          "name": "revenue",
          "type": "uint256"
        },
        {
          "internalType": "string",
          "name": "tokenName",
          "type": "string"
        },
        {
          "internalType": "string",
          "name": "tokenSymbol",
          "type": "string"
        }
      ],
      "stateMutability": "view",
      "type": "function"
    }
  ],
  "bytecode": "0x60806040526000805534801561001457600080fd5b50610dc6806100246000396000f3fe608060405234801561001057600080fd5b50600436106100575760003560e01c8063057466ea1461005c57806306661abd146100715780634f64b2be1461008d578063519dc8d2146100b55780638a209bf1146100d5575b600080fd5b61006f61006a3660046108a0565b6100e8565b005b61007a60005481565b6040519081526020015b60405180910390f35b6100a061009b3660046108c2565b6102c3565b60405161008499989796959493929190610921565b6100c86100c33660046109c7565b61053b565b60405161008491906109eb565b61006f6100e3366004610ae2565b6105a7565b6000548211156101355760405162461bcd60e51b8152602060048201526013602482015272092dcecc2d8d2c840e8ded6cadc40d2dcc8caf606b1b60448201526064015b60405180910390fd5b600082815260016020526040902060028101548211156101a85760405162461bcd60e51b815260206004820152602860248201527f4e6f7420656e6f75676820746f6b656e7320617661696c61626c6520666f7220604482015267707572636861736560c01b606482015260840161012c565b60008160030154836101ba9190610bc9565b600183015483546040516323b872dd60e01b81526001600160a01b0391821660048201523360248201526044810187905292935016906323b872dd906064016020604051808303816000875af1158015610218573d6000803e3d6000fd5b505050506040513d601f19601f8201168201806040525081019061023c9190610be6565b50828260020160008282546102519190610c08565b925050819055508082600601600082825461026c9190610c1b565b9091555050600182015460408051858152602081018490526001600160a01b039092169133917fa8a7473f10e62cf9687e243de1c3ac8b3cbc3dd04b96826beb3a65b595385814910160405180910390a350505050565b6001602081905260009182526040909120805491810154600282015460038301546004840180546001600160a01b039687169690941694929391929161030890610c2e565b80601f016020809104026020016040519081016040528092919081815260200182805461033490610c2e565b80156103815780601f1061035657610100808354040283529160200191610381565b820191906000526020600020905b81548152906001019060200180831161036457829003601f168201915b50505050509080600501805461039690610c2e565b80601f01602080910402602001604051908101604052809291908181526020018280546103c290610c2e565b801561040f5780601f106103e45761010080835404028352916020019161040f565b820191906000526020600020905b8154815290600101906020018083116103f257829003601f168201915b50505050509080600601549080600701805461042a90610c2e565b80601f016020809104026020016040519081016040528092919081815260200182805461045690610c2e565b80156104a35780601f10610478576101008083540402835291602001916104a3565b820191906000526020600020905b81548152906001019060200180831161048657829003601f168201915b5050505050908060080180546104b890610c2e565b80601f01602080910402602001604051908101604052809291908181526020018280546104e490610c2e565b80156105315780601f1061050657610100808354040283529160200191610531565b820191906000526020600020905b81548152906001019060200180831161051457829003601f168201915b5050505050905089565b6001600160a01b03811660009081526002602090815260409182902080548351818402810184019094528084526060939283018282801561059b57602002820191906000526020600020905b815481526020019060010190808311610587575b50505050509050919050565b600086116106055760405162461bcd60e51b815260206004820152602560248201527f4c697374696e6720737570706c79206d75737420626520677265617465722074604482015264068616e20360dc1b606482015260840161012c565b600085116106605760405162461bcd60e51b815260206004820152602260248201527f546f6b656e207072696365206d7573742062652067726561746572207468616e604482015261020360f41b606482015260840161012c565b60405163095ea7b360e01b8152306004820152602481018790526001600160a01b0388169063095ea7b3906044016020604051808303816000875af11580156106ad573d6000803e3d6000fd5b505050506040513d601f19601f820116820180604052508101906106d19190610be6565b61070f5760405162461bcd60e51b815260206004820152600f60248201526e105c1c1c9bdd985b0819985a5b1959608a1b604482015260640161012c565b60408051610120810182523381526001600160a01b0389166020820152908101879052606081018690526080810185905260a08101849052600060c0820181905260e0820184905261010082018390528054908061076c83610c68565b909155505060008054815260016020818152604092839020845181546001600160a01b03199081166001600160a01b03928316178355928601519382018054909316931692909217905590820151600282015560608201516003820155608082015182919060048201906107e09082610cd0565b5060a082015160058201906107f59082610cd0565b5060c0820151600682015560e082015160078201906108149082610cd0565b50610100820151600882019061082a9082610cd0565b50503360008181526002602090815260408083208354815460018101835591855293839020019290925581518b81529081018a90526001600160a01b038c1693507ff89e92ffa126a1220c78d929debeb20f1739d1e2409dd51b3cef726162735609910160405180910390a35050505050505050565b600080604083850312156108b357600080fd5b50508035926020909101359150565b6000602082840312156108d457600080fd5b5035919050565b6000815180845260005b81811015610901576020818501810151868301820152016108e5565b506000602082860101526020601f19601f83011685010191505092915050565b6001600160a01b038a811682528916602082015260408101889052606081018790526101206080820181905260009061095c838201896108db565b905082810360a084015261097081886108db565b90508560c084015282810360e084015261098a81866108db565b905082810361010084015261099f81856108db565b9c9b505050505050505050505050565b6001600160a01b03811681146109c457600080fd5b50565b6000602082840312156109d957600080fd5b81356109e4816109af565b9392505050565b6020808252825182820181905260009190848201906040850190845b81811015610a2357835183529284019291840191600101610a07565b50909695505050505050565b8035610a3a816109af565b919050565b634e487b7160e01b600052604160045260246000fd5b600082601f830112610a6657600080fd5b813567ffffffffffffffff80821115610a8157610a81610a3f565b604051601f8301601f19908116603f01168101908282118183101715610aa957610aa9610a3f565b81604052838152866020858801011115610ac257600080fd5b836020870160208301376000602085830101528094505050505092915050565b600080600080600080600060e0888a031215610afd57600080fd5b610b0688610a2f565b96506020880135955060408801359450606088013567ffffffffffffffff80821115610b3157600080fd5b610b3d8b838c01610a55565b955060808a0135915080821115610b5357600080fd5b610b5f8b838c01610a55565b945060a08a0135915080821115610b7557600080fd5b610b818b838c01610a55565b935060c08a0135915080821115610b9757600080fd5b50610ba48a828b01610a55565b91505092959891949750929550565b634e487b7160e01b600052601160045260246000fd5b8082028115828204841417610be057610be0610bb3565b92915050565b600060208284031215610bf857600080fd5b815180151581146109e457600080fd5b81810381811115610be057610be0610bb3565b80820180821115610be057610be0610bb3565b600181811c90821680610c4257607f821691505b602082108103610c6257634e487b7160e01b600052602260045260246000fd5b50919050565b600060018201610c7a57610c7a610bb3565b5060010190565b601f821115610ccb57600081815260208120601f850160051c81016020861015610ca85750805b601f850160051c820191505b81811015610cc757828155600101610cb4565b5050505b505050565b815167ffffffffffffffff811115610cea57610cea610a3f565b610cfe81610cf88454610c2e565b84610c81565b602080601f831160018114610d335760008415610d1b5750858301515b600019600386901b1c1916600185901b178555610cc7565b600085815260208120601f198616915b82811015610d6257888601518255948401946001909101908401610d43565b5085821015610d805787850151600019600388901b60f8161c191681555b5050505050600190811b0190555056fea264697066735822122059d0dee678d914ec1a8a4d11061757e4d2faeae80c69febb69e72d974f5958ff64736f6c63430008140033",
  "linkReferences": {},
  "deployedLinkReferences": {}
}